{
  "contractName": "StakingPool",
  "abi": [
    {
      "inputs": [
        {
          "internalType": "contract IERC20",
          "name": "_stakingToken",
          "type": "address"
        },
        {
          "internalType": "contract IERC20",
          "name": "_poolToken",
          "type": "address"
        },
        {
          "internalType": "uint256",
          "name": "_startTime",
          "type": "uint256"
        },
        {
          "internalType": "uint256",
          "name": "_finishTime",
          "type": "uint256"
        },
        {
          "internalType": "uint256",
          "name": "_poolTokenAmount",
          "type": "uint256"
        },
        {
          "internalType": "bool",
          "name": "_hasWhitelisting",
          "type": "bool"
        }
      ],
      "stateMutability": "nonpayable",
      "type": "constructor"
    },
    {
      "anonymous": false,
      "inputs": [
        {
          "indexed": false,
          "internalType": "address",
          "name": "account",
          "type": "address"
        }
      ],
      "name": "AddedToWhitelist",
      "type": "event"
    },
    {
      "anonymous": false,
      "inputs": [
        {
          "indexed": true,
          "internalType": "address",
          "name": "user",
          "type": "address"
        },
        {
          "indexed": false,
          "internalType": "uint256",
          "name": "amount",
          "type": "uint256"
        }
      ],
      "name": "EmergencyWithdraw",
      "type": "event"
    },
    {
      "anonymous": false,
      "inputs": [
        {
          "indexed": false,
          "internalType": "bool",
          "name": "newValue",
          "type": "bool"
        }
      ],
      "name": "HasWhitelistingUpdated",
      "type": "event"
    },
    {
      "anonymous": false,
      "inputs": [
        {
          "indexed": true,
          "internalType": "address",
          "name": "previousOwner",
          "type": "address"
        },
        {
          "indexed": true,
          "internalType": "address",
          "name": "newOwner",
          "type": "address"
        }
      ],
      "name": "OwnershipTransferred",
      "type": "event"
    },
    {
      "anonymous": false,
      "inputs": [
        {
          "indexed": false,
          "internalType": "uint256",
          "name": "amount",
          "type": "uint256"
        }
      ],
      "name": "PoolReplenished",
      "type": "event"
    },
    {
      "anonymous": false,
      "inputs": [
        {
          "indexed": false,
          "internalType": "address",
          "name": "account",
          "type": "address"
        }
      ],
      "name": "RemovedFromWhitelist",
      "type": "event"
    },
    {
      "anonymous": false,
      "inputs": [
        {
          "indexed": true,
          "internalType": "address",
          "name": "user",
          "type": "address"
        },
        {
          "indexed": false,
          "internalType": "uint256",
          "name": "amount",
          "type": "uint256"
        },
        {
          "indexed": false,
          "internalType": "uint256",
          "name": "reward",
          "type": "uint256"
        }
      ],
      "name": "StakeWithdrawn",
      "type": "event"
    },
    {
      "anonymous": false,
      "inputs": [
        {
          "indexed": true,
          "internalType": "address",
          "name": "user",
          "type": "address"
        },
        {
          "indexed": false,
          "internalType": "uint256",
          "name": "amount",
          "type": "uint256"
        },
        {
          "indexed": false,
          "internalType": "uint256",
          "name": "reward",
          "type": "uint256"
        },
        {
          "indexed": false,
          "internalType": "bool",
          "name": "reinvest",
          "type": "bool"
        }
      ],
      "name": "TokensStaked",
      "type": "event"
    },
    {
      "anonymous": false,
      "inputs": [
        {
          "indexed": false,
          "internalType": "uint256",
          "name": "addedTokenAmount",
          "type": "uint256"
        },
        {
          "indexed": false,
          "internalType": "uint256",
          "name": "newFinishTime",
          "type": "uint256"
        }
      ],
      "name": "UpdateFinishTime",
      "type": "event"
    },
    {
      "anonymous": false,
      "inputs": [
        {
          "indexed": true,
          "internalType": "address",
          "name": "user",
          "type": "address"
        },
        {
          "indexed": false,
          "internalType": "uint256",
          "name": "amount",
          "type": "uint256"
        }
      ],
      "name": "WithdrawPoolRemainder",
      "type": "event"
    },
    {
      "inputs": [],
      "name": "accTokensPerShare",
      "outputs": [
        {
          "internalType": "uint256",
          "name": "",
          "type": "uint256"
        }
      ],
      "stateMutability": "view",
      "type": "function"
    },
    {
      "inputs": [
        {
          "internalType": "address[]",
          "name": "_addresses",
          "type": "address[]"
        }
      ],
      "name": "add",
      "outputs": [],
      "stateMutability": "nonpayable",
      "type": "function"
    },
    {
      "inputs": [],
      "name": "allPaidReward",
      "outputs": [
        {
          "internalType": "uint256",
          "name": "",
          "type": "uint256"
        }
      ],
      "stateMutability": "view",
      "type": "function"
    },
    {
      "inputs": [],
      "name": "allRewardDebt",
      "outputs": [
        {
          "internalType": "uint256",
          "name": "",
          "type": "uint256"
        }
      ],
      "stateMutability": "view",
      "type": "function"
    },
    {
      "inputs": [],
      "name": "allStakedAmount",
      "outputs": [
        {
          "internalType": "uint256",
          "name": "",
          "type": "uint256"
        }
      ],
      "stateMutability": "view",
      "type": "function"
    },
    {
      "inputs": [],
      "name": "allowReinvest",
      "outputs": [
        {
          "internalType": "bool",
          "name": "",
          "type": "bool"
        }
      ],
      "stateMutability": "view",
      "type": "function"
    },
    {
      "inputs": [],
      "name": "finishTime",
      "outputs": [
        {
          "internalType": "uint256",
          "name": "",
          "type": "uint256"
        }
      ],
      "stateMutability": "view",
      "type": "function"
    },
    {
      "inputs": [],
      "name": "hasWhitelisting",
      "outputs": [
        {
          "internalType": "bool",
          "name": "",
          "type": "bool"
        }
      ],
      "stateMutability": "view",
      "type": "function"
    },
    {
      "inputs": [
        {
          "internalType": "address",
          "name": "_address",
          "type": "address"
        }
      ],
      "name": "isWhitelisted",
      "outputs": [
        {
          "internalType": "bool",
          "name": "",
          "type": "bool"
        }
      ],
      "stateMutability": "view",
      "type": "function"
    },
    {
      "inputs": [],
      "name": "lastRewardTime",
      "outputs": [
        {
          "internalType": "uint256",
          "name": "",
          "type": "uint256"
        }
      ],
      "stateMutability": "view",
      "type": "function"
    },
    {
      "inputs": [],
      "name": "owner",
      "outputs": [
        {
          "internalType": "address",
          "name": "",
          "type": "address"
        }
      ],
      "stateMutability": "view",
      "type": "function"
    },
    {
      "inputs": [],
      "name": "participants",
      "outputs": [
        {
          "internalType": "uint256",
          "name": "",
          "type": "uint256"
        }
      ],
      "stateMutability": "view",
      "type": "function"
    },
    {
      "inputs": [],
      "name": "poolTokenAmount",
      "outputs": [
        {
          "internalType": "uint256",
          "name": "",
          "type": "uint256"
        }
      ],
      "stateMutability": "view",
      "type": "function"
    },
    {
      "inputs": [
        {
          "internalType": "address[]",
          "name": "_addresses",
          "type": "address[]"
        }
      ],
      "name": "remove",
      "outputs": [],
      "stateMutability": "nonpayable",
      "type": "function"
    },
    {
      "inputs": [],
      "name": "renounceOwnership",
      "outputs": [],
      "stateMutability": "nonpayable",
      "type": "function"
    },
    {
      "inputs": [],
      "name": "rewardPerSec",
      "outputs": [
        {
          "internalType": "uint256",
          "name": "",
          "type": "uint256"
        }
      ],
      "stateMutability": "view",
      "type": "function"
    },
    {
      "inputs": [],
      "name": "rewardToken",
      "outputs": [
        {
          "internalType": "contract IERC20",
          "name": "",
          "type": "address"
        }
      ],
      "stateMutability": "view",
      "type": "function"
    },
    {
      "inputs": [],
      "name": "stakingToken",
      "outputs": [
        {
          "internalType": "contract IERC20",
          "name": "",
          "type": "address"
        }
      ],
      "stateMutability": "view",
      "type": "function"
    },
    {
      "inputs": [],
      "name": "startTime",
      "outputs": [
        {
          "internalType": "uint256",
          "name": "",
          "type": "uint256"
        }
      ],
      "stateMutability": "view",
      "type": "function"
    },
    {
      "inputs": [
        {
          "internalType": "address",
          "name": "newOwner",
          "type": "address"
        }
      ],
      "name": "transferOwnership",
      "outputs": [],
      "stateMutability": "nonpayable",
      "type": "function"
    },
    {
      "inputs": [
        {
          "internalType": "address",
          "name": "",
          "type": "address"
        }
      ],
      "name": "userInfo",
      "outputs": [
        {
          "internalType": "uint256",
          "name": "amount",
          "type": "uint256"
        },
        {
          "internalType": "uint256",
          "name": "rewardDebt",
          "type": "uint256"
        },
        {
          "internalType": "bool",
          "name": "registrated",
          "type": "bool"
        }
      ],
      "stateMutability": "view",
      "type": "function"
    },
    {
      "inputs": [
        {
          "internalType": "address",
          "name": "",
          "type": "address"
        }
      ],
      "name": "whitelist",
      "outputs": [
        {
          "internalType": "bool",
          "name": "",
          "type": "bool"
        }
      ],
      "stateMutability": "view",
      "type": "function"
    },
    {
      "inputs": [
        {
          "internalType": "address",
          "name": "user",
          "type": "address"
        }
      ],
      "name": "getUserInfo",
      "outputs": [
        {
          "internalType": "uint256",
          "name": "",
          "type": "uint256"
        },
        {
          "internalType": "uint256",
          "name": "",
          "type": "uint256"
        }
      ],
      "stateMutability": "view",
      "type": "function"
    },
    {
      "inputs": [
        {
          "internalType": "address",
          "name": "_user",
          "type": "address"
        }
      ],
      "name": "pendingReward",
      "outputs": [
        {
          "internalType": "uint256",
          "name": "",
          "type": "uint256"
        }
      ],
      "stateMutability": "view",
      "type": "function"
    },
    {
      "inputs": [],
      "name": "updatePool",
      "outputs": [],
      "stateMutability": "nonpayable",
      "type": "function"
    },
    {
      "inputs": [],
      "name": "reinvestTokens",
      "outputs": [],
      "stateMutability": "nonpayable",
      "type": "function"
    },
    {
      "inputs": [
        {
          "internalType": "uint256",
          "name": "_amountToStake",
          "type": "uint256"
        }
      ],
      "name": "stakeTokens",
      "outputs": [],
      "stateMutability": "nonpayable",
      "type": "function"
    },
    {
      "inputs": [
        {
          "internalType": "uint256",
          "name": "_amount",
          "type": "uint256"
        }
      ],
      "name": "withdrawStake",
      "outputs": [],
      "stateMutability": "nonpayable",
      "type": "function"
    },
    {
      "inputs": [],
      "name": "emergencyWithdraw",
      "outputs": [],
      "stateMutability": "nonpayable",
      "type": "function"
    },
    {
      "inputs": [],
      "name": "withdrawPoolRemainder",
      "outputs": [],
      "stateMutability": "nonpayable",
      "type": "function"
    },
    {
      "inputs": [
        {
          "internalType": "uint256",
          "name": "_addTokenAmount",
          "type": "uint256"
        }
      ],
      "name": "extendDuration",
      "outputs": [],
      "stateMutability": "nonpayable",
      "type": "function"
    },
    {
      "inputs": [
        {
          "internalType": "bool",
          "name": "value",
          "type": "bool"
        }
      ],
      "name": "setHasWhitelisting",
      "outputs": [],
      "stateMutability": "nonpayable",
      "type": "function"
    },
    {
      "inputs": [],
      "name": "version",
      "outputs": [
        {
          "internalType": "uint256",
          "name": "",
          "type": "uint256"
        }
      ],
      "stateMutability": "pure",
      "type": "function"
    }
  ],
  "bytecode": "0x60806040526000600260006101000a81548160ff0219169083151502179055503480156200002c57600080fd5b506040516200330438038062003304833981810160405260c08110156200005257600080fd5b81019080805190602001909291908051906020019092919080519060200190929190805190602001909291908051906020019092919080519060200190929190505050806000620000a8620003c660201b60201c565b9050806000806101000a81548173ffffffffffffffffffffffffffffffffffffffff021916908373ffffffffffffffffffffffffffffffffffffffff1602179055508073ffffffffffffffffffffffffffffffffffffffff16600073ffffffffffffffffffffffffffffffffffffffff167f8be0079c531659141344cd1fd0a4f28419497f9722a3daafe3b4186f6b6457e060405160405180910390a35080600260006101000a81548160ff02191690831515021790555050600160038190555085600460016101000a81548173ffffffffffffffffffffffffffffffffffffffff021916908373ffffffffffffffffffffffffffffffffffffffff16021790555084600560006101000a81548173ffffffffffffffffffffffffffffffffffffffff021916908373ffffffffffffffffffffffffffffffffffffffff16021790555082841062000261576040517f08c379a000000000000000000000000000000000000000000000000000000000815260040180806020018281038252601e8152602001807f5374617274206d757374206265206c657373207468616e2066696e697368000081525060200191505060405180910390fd5b428411620002d7576040517f08c379a000000000000000000000000000000000000000000000000000000000815260040180806020018281038252601b8152602001807f5374617274206d757374206265206d6f7265207468616e206e6f77000000000081525060200191505060405180910390fd5b836006819055506006546007819055508260088190555081600c8190555062000328620003138585620003ce60201b6200202d1790919060201c565b836200045260201b620020b01790919060201c565b600d81905550600560009054906101000a900473ffffffffffffffffffffffffffffffffffffffff1673ffffffffffffffffffffffffffffffffffffffff16600460019054906101000a900473ffffffffffffffffffffffffffffffffffffffff1673ffffffffffffffffffffffffffffffffffffffff1614600460006101000a81548160ff021916908315150217905550505050505050620004dd565b600033905090565b60008282111562000447576040517f08c379a000000000000000000000000000000000000000000000000000000000815260040180806020018281038252601e8152602001807f536166654d6174683a207375627472616374696f6e206f766572666c6f77000081525060200191505060405180910390fd5b818303905092915050565b6000808211620004ca576040517f08c379a000000000000000000000000000000000000000000000000000000000815260040180806020018281038252601a8152602001807f536166654d6174683a206469766973696f6e206279207a65726f00000000000081525060200191505060405180910390fd5b818381620004d457fe5b04905092915050565b612e1780620004ed6000396000f3fe608060405234801561001057600080fd5b50600436106101fb5760003560e01c80637647ca051161011a578063c4c1c94f116100ad578063e3161ddd1161007c578063e3161ddd146107a1578063e42578ce146107ab578063f2fde38b146107c9578063f40f0f521461080d578063f7c618c114610865576101fb565b8063c4c1c94f146106b7578063c5ebffb41461076f578063d501953d14610779578063db2e21bc14610797576101fb565b80639231cf74116100e95780639231cf7414610601578063951fbcc81461061f5780639b19251a1461063d578063c4b9b20014610697576101fb565b80637647ca051461057757806378e97925146105815780638746656f1461059f5780638da5cb5b146105cd576101fb565b80635958611e116101925780636eaaabd5116101615780636eaaabd5146104db578063715018a61461050b57806372f702f3146105155780637547c7a314610549576101fb565b80635958611e146103885780635e4ba17c146103a65780636386c1c71461045e5780636c4470fb146104bd576101fb565b80632f3c9a4f116101ce5780632f3c9a4f146102d45780633af32abf146102f25780634f41e95d1461034c57806354fd4d501461036a576101fb565b8063076623451461020057806314d3bf41146102205780631959a0021461023e57806325d5971f146102a6575b600080fd5b610208610899565b60405180821515815260200191505060405180910390f35b6102286108ac565b6040518082815260200191505060405180910390f35b6102806004803603602081101561025457600080fd5b81019080803573ffffffffffffffffffffffffffffffffffffffff1690602001909291905050506108b2565b604051808481526020018381526020018215158152602001935050505060405180910390f35b6102d2600480360360208110156102bc57600080fd5b81019080803590602001909291905050506108e9565b005b6102dc610be5565b6040518082815260200191505060405180910390f35b6103346004803603602081101561030857600080fd5b81019080803573ffffffffffffffffffffffffffffffffffffffff169060200190929190505050610beb565b60405180821515815260200191505060405180910390f35b610354610c41565b6040518082815260200191505060405180910390f35b610372610c47565b6040518082815260200191505060405180910390f35b610390610c50565b6040518082815260200191505060405180910390f35b61045c600480360360208110156103bc57600080fd5b81019080803590602001906401000000008111156103d957600080fd5b8201836020820111156103eb57600080fd5b8035906020019184602083028401116401000000008311171561040d57600080fd5b919080806020026020016040519081016040528093929190818152602001838360200280828437600081840152601f19601f820116905080830192505050505050509192919290505050610c56565b005b6104a06004803603602081101561047457600080fd5b81019080803573ffffffffffffffffffffffffffffffffffffffff169060200190929190505050610e33565b604051808381526020018281526020019250505060405180910390f35b6104c5610ecd565b6040518082815260200191505060405180910390f35b610509600480360360208110156104f157600080fd5b81019080803515159060200190929190505050610ed3565b005b610513610fe7565b005b61051d611154565b604051808273ffffffffffffffffffffffffffffffffffffffff16815260200191505060405180910390f35b6105756004803603602081101561055f57600080fd5b810190808035906020019092919050505061117a565b005b61057f611239565b005b610589611520565b6040518082815260200191505060405180910390f35b6105cb600480360360208110156105b557600080fd5b8101908080359060200190929190505050611526565b005b6105d56117b2565b604051808273ffffffffffffffffffffffffffffffffffffffff16815260200191505060405180910390f35b6106096117db565b6040518082815260200191505060405180910390f35b6106276117e1565b6040518082815260200191505060405180910390f35b61067f6004803603602081101561065357600080fd5b81019080803573ffffffffffffffffffffffffffffffffffffffff1690602001909291905050506117e7565b60405180821515815260200191505060405180910390f35b61069f611807565b60405180821515815260200191505060405180910390f35b61076d600480360360208110156106cd57600080fd5b81019080803590602001906401000000008111156106ea57600080fd5b8201836020820111156106fc57600080fd5b8035906020019184602083028401116401000000008311171561071e57600080fd5b919080806020026020016040519081016040528093929190818152602001838360200280828437600081840152601f19601f82011690508083019250505050505050919291929050505061181a565b005b6107776119b0565b005b610781611a6f565b6040518082815260200191505060405180910390f35b61079f611a75565b005b6107a9611c47565b005b6107b3611cea565b6040518082815260200191505060405180910390f35b61080b600480360360208110156107df57600080fd5b81019080803573ffffffffffffffffffffffffffffffffffffffff169060200190929190505050611cf0565b005b61084f6004803603602081101561082357600080fd5b81019080803573ffffffffffffffffffffffffffffffffffffffff169060200190929190505050611ee2565b6040518082815260200191505060405180910390f35b61086d612007565b604051808273ffffffffffffffffffffffffffffffffffffffff16815260200191505060405180910390f35b600260009054906101000a900460ff1681565b60095481565b60106020528060005260406000206000915090508060000154908060010154908060020160009054906101000a900460ff16905083565b60026003541415610962576040517f08c379a000000000000000000000000000000000000000000000000000000000815260040180806020018281038252601f8152602001807f5265656e7472616e637947756172643a207265656e7472616e742063616c6c0081525060200191505060405180910390fd5b60026003819055506000601060003373ffffffffffffffffffffffffffffffffffffffff1673ffffffffffffffffffffffffffffffffffffffff16815260200190815260200160002090508181600001541015610a27576040517f08c379a00000000000000000000000000000000000000000000000000000000081526004018080602001828103825260128152602001807f77697468647261773a206e6f7420676f6f64000000000000000000000000000081525060200191505060405180910390fd5b610a2f611c47565b6000610a768260405180606001604052908160008201548152602001600182015481526020016002820160009054906101000a900460ff1615151515815250506000612139565b90506000831115610aee57610a9883836000015461202d90919063ffffffff16565b8260000181905550610aed3384600460019054906101000a900473ffffffffffffffffffffffffffffffffffffffff1673ffffffffffffffffffffffffffffffffffffffff166122099092919063ffffffff16565b5b610b078260010154600b5461202d90919063ffffffff16565b600b81905550610b40670de0b6b3a7640000610b32600e5485600001546122ab90919063ffffffff16565b6120b090919063ffffffff16565b8260010181905550610b618260010154600b5461233190919063ffffffff16565b600b81905550610b7c8360095461202d90919063ffffffff16565b6009819055503373ffffffffffffffffffffffffffffffffffffffff167f933735aa8de6d7547d0126171b2f31b9c34dd00f3ecd4be85a0ba047db4fafef8483604051808381526020018281526020019250505060405180910390a25050600160038190555050565b600e5481565b6000600160008373ffffffffffffffffffffffffffffffffffffffff1673ffffffffffffffffffffffffffffffffffffffff16815260200190815260200160002060009054906101000a900460ff169050919050565b600d5481565b60006065905090565b60085481565b610c5e6123b9565b73ffffffffffffffffffffffffffffffffffffffff16610c7c6117b2565b73ffffffffffffffffffffffffffffffffffffffff1614610d05576040517f08c379a00000000000000000000000000000000000000000000000000000000081526004018080602001828103825260208152602001807f4f776e61626c653a2063616c6c6572206973206e6f7420746865206f776e657281525060200191505060405180910390fd5b60005b8151811015610e2f576000828281518110610d1f57fe5b60200260200101519050600160008273ffffffffffffffffffffffffffffffffffffffff1673ffffffffffffffffffffffffffffffffffffffff16815260200190815260200160002060009054906101000a900460ff1615610e21576000600160008373ffffffffffffffffffffffffffffffffffffffff1673ffffffffffffffffffffffffffffffffffffffff16815260200190815260200160002060006101000a81548160ff0219169083151502179055507fcdd2e9b91a56913d370075169cefa1602ba36be5301664f752192bb1709df75781604051808273ffffffffffffffffffffffffffffffffffffffff16815260200191505060405180910390a15b508080600101915050610d08565b5050565b600080610e3e612d27565b601060008573ffffffffffffffffffffffffffffffffffffffff1673ffffffffffffffffffffffffffffffffffffffff16815260200190815260200160002060405180606001604052908160008201548152602001600182015481526020016002820160009054906101000a900460ff1615151515815250509050806000015181602001519250925050915091565b600f5481565b610edb6123b9565b73ffffffffffffffffffffffffffffffffffffffff16610ef96117b2565b73ffffffffffffffffffffffffffffffffffffffff1614610f82576040517f08c379a00000000000000000000000000000000000000000000000000000000081526004018080602001828103825260208152602001807f4f776e61626c653a2063616c6c6572206973206e6f7420746865206f776e657281525060200191505060405180910390fd5b80600260006101000a81548160ff0219169083151502179055507f81a1b67ab393231a9f3a2ce8c84cc6c46c76cc94cf733e155af6fb539873fa39600260009054906101000a900460ff1660405180821515815260200191505060405180910390a150565b610fef6123b9565b73ffffffffffffffffffffffffffffffffffffffff1661100d6117b2565b73ffffffffffffffffffffffffffffffffffffffff1614611096576040517f08c379a00000000000000000000000000000000000000000000000000000000081526004018080602001828103825260208152602001807f4f776e61626c653a2063616c6c6572206973206e6f7420746865206f776e657281525060200191505060405180910390fd5b600073ffffffffffffffffffffffffffffffffffffffff1660008054906101000a900473ffffffffffffffffffffffffffffffffffffffff1673ffffffffffffffffffffffffffffffffffffffff167f8be0079c531659141344cd1fd0a4f28419497f9722a3daafe3b4186f6b6457e060405160405180910390a360008060006101000a81548173ffffffffffffffffffffffffffffffffffffffff021916908373ffffffffffffffffffffffffffffffffffffffff160217905550565b600460019054906101000a900473ffffffffffffffffffffffffffffffffffffffff1681565b600260035414156111f3576040517f08c379a000000000000000000000000000000000000000000000000000000000815260040180806020018281038252601f8152602001807f5265656e7472616e637947756172643a207265656e7472616e742063616c6c0081525060200191505060405180910390fd5b6002600381905550600260009054906101000a900460ff16156112235761121933610beb565b61122257600080fd5b5b61122e8160006123c1565b600160038190555050565b6112416123b9565b73ffffffffffffffffffffffffffffffffffffffff1661125f6117b2565b73ffffffffffffffffffffffffffffffffffffffff16146112e8576040517f08c379a00000000000000000000000000000000000000000000000000000000081526004018080602001828103825260208152602001807f4f776e61626c653a2063616c6c6572206973206e6f7420746865206f776e657281525060200191505060405180910390fd5b60026003541415611361576040517f08c379a000000000000000000000000000000000000000000000000000000000815260040180806020018281038252601f8152602001807f5265656e7472616e637947756172643a207265656e7472616e742063616c6c0081525060200191505060405180910390fd5b600260038190555060085442116113e0576040517f08c379a00000000000000000000000000000000000000000000000000000000081526004018080602001828103825260128152602001807f416c6c6f772061667465722066696e697368000000000000000000000000000081525060200191505060405180910390fd5b6113e8611c47565b600061142f600b54611421670de0b6b3a7640000611413600e546009546122ab90919063ffffffff16565b6120b090919063ffffffff16565b61202d90919063ffffffff16565b9050600061145c8261144e600a54600c5461202d90919063ffffffff16565b61202d90919063ffffffff16565b905061147381600a5461233190919063ffffffff16565b600a819055506114c63382600560009054906101000a900473ffffffffffffffffffffffffffffffffffffffff1673ffffffffffffffffffffffffffffffffffffffff166122099092919063ffffffff16565b3373ffffffffffffffffffffffffffffffffffffffff167f575274ea138cb54fdd6aded4d581d6cfb06d6cda7b8d9c519804512d1d61b5a4826040518082815260200191505060405180910390a250506001600381905550565b60065481565b61152e6123b9565b73ffffffffffffffffffffffffffffffffffffffff1661154c6117b2565b73ffffffffffffffffffffffffffffffffffffffff16146115d5576040517f08c379a00000000000000000000000000000000000000000000000000000000081526004018080602001828103825260208152602001807f4f776e61626c653a2063616c6c6572206973206e6f7420746865206f776e657281525060200191505060405180910390fd5b6002600354141561164e576040517f08c379a000000000000000000000000000000000000000000000000000000000815260040180806020018281038252601f8152602001807f5265656e7472616e637947756172643a207265656e7472616e742063616c6c0081525060200191505060405180910390fd5b600260038190555060085442106116cd576040517f08c379a00000000000000000000000000000000000000000000000000000000081526004018080602001828103825260118152602001807f506f6f6c207761732066696e697368656400000000000000000000000000000081525060200191505060405180910390fd5b61171c333083600560009054906101000a900473ffffffffffffffffffffffffffffffffffffffff1673ffffffffffffffffffffffffffffffffffffffff16612872909392919063ffffffff16565b61173181600c5461233190919063ffffffff16565b600c8190555061176061174f600d54836120b090919063ffffffff16565b60085461233190919063ffffffff16565b6008819055507f127b91073863d59a24754139ce8786738818c7bfcf79fc24cadc1480bd32479181600854604051808381526020018281526020019250505060405180910390a1600160038190555050565b60008060009054906101000a900473ffffffffffffffffffffffffffffffffffffffff16905090565b60075481565b600b5481565b60016020528060005260406000206000915054906101000a900460ff1681565b600460009054906101000a900460ff1681565b6118226123b9565b73ffffffffffffffffffffffffffffffffffffffff166118406117b2565b73ffffffffffffffffffffffffffffffffffffffff16146118c9576040517f08c379a00000000000000000000000000000000000000000000000000000000081526004018080602001828103825260208152602001807f4f776e61626c653a2063616c6c6572206973206e6f7420746865206f776e657281525060200191505060405180910390fd5b60005b81518110156119ac5760018060008484815181106118e657fe5b602002602001015173ffffffffffffffffffffffffffffffffffffffff1673ffffffffffffffffffffffffffffffffffffffff16815260200190815260200160002060006101000a81548160ff0219169083151502179055507fa850ae9193f515cbae8d35e8925bd2be26627fc91bce650b8652ed254e9cab0382828151811061196c57fe5b6020026020010151604051808273ffffffffffffffffffffffffffffffffffffffff16815260200191505060405180910390a180806001019150506118cc565b5050565b60026003541415611a29576040517f08c379a000000000000000000000000000000000000000000000000000000000815260040180806020018281038252601f8152602001807f5265656e7472616e637947756172643a207265656e7472616e742063616c6c0081525060200191505060405180910390fd5b6002600381905550600260009054906101000a900460ff1615611a5957611a4f33610beb565b611a5857600080fd5b5b611a65600060016123c1565b6001600381905550565b600c5481565b60026003541415611aee576040517f08c379a000000000000000000000000000000000000000000000000000000000815260040180806020018281038252601f8152602001807f5265656e7472616e637947756172643a207265656e7472616e742063616c6c0081525060200191505060405180910390fd5b60026003819055506000601060003373ffffffffffffffffffffffffffffffffffffffff1673ffffffffffffffffffffffffffffffffffffffff1681526020019081526020016000209050600081600001541115611c3c57611b97338260000154600460019054906101000a900473ffffffffffffffffffffffffffffffffffffffff1673ffffffffffffffffffffffffffffffffffffffff166122099092919063ffffffff16565b3373ffffffffffffffffffffffffffffffffffffffff167f5fafa99d0643513820be26656b45130b01e1c03062e1266bf36f88cbd3bd969582600001546040518082815260200191505060405180910390a2611c02816000015460095461202d90919063ffffffff16565b600981905550611c218160010154600b5461202d90919063ffffffff16565b600b8190555060008160000181905550600081600101819055505b506001600381905550565b6007544211611c5557611ce8565b60006009541415611c6c5742600781905550611ce8565b6000611c7a60075442612933565b90506000611c93600d54836122ab90919063ffffffff16565b9050611cd8611cc7600954611cb9670de0b6b3a7640000856122ab90919063ffffffff16565b6120b090919063ffffffff16565b600e5461233190919063ffffffff16565b600e819055504260078190555050505b565b600a5481565b611cf86123b9565b73ffffffffffffffffffffffffffffffffffffffff16611d166117b2565b73ffffffffffffffffffffffffffffffffffffffff1614611d9f576040517f08c379a00000000000000000000000000000000000000000000000000000000081526004018080602001828103825260208152602001807f4f776e61626c653a2063616c6c6572206973206e6f7420746865206f776e657281525060200191505060405180910390fd5b600073ffffffffffffffffffffffffffffffffffffffff168173ffffffffffffffffffffffffffffffffffffffff161415611e25576040517f08c379a0000000000000000000000000000000000000000000000000000000008152600401808060200182810382526026815260200180612d4b6026913960400191505060405180910390fd5b8073ffffffffffffffffffffffffffffffffffffffff1660008054906101000a900473ffffffffffffffffffffffffffffffffffffffff1673ffffffffffffffffffffffffffffffffffffffff167f8be0079c531659141344cd1fd0a4f28419497f9722a3daafe3b4186f6b6457e060405160405180910390a3806000806101000a81548173ffffffffffffffffffffffffffffffffffffffff021916908373ffffffffffffffffffffffffffffffffffffffff16021790555050565b600080601060008473ffffffffffffffffffffffffffffffffffffffff1673ffffffffffffffffffffffffffffffffffffffff16815260200190815260200160002090506000600e54905060075442118015611f415750600060095414155b15611fb7576000611f5460075442612933565b90506000611f6d600d54836122ab90919063ffffffff16565b9050611fb2611fa1600954611f93670de0b6b3a7640000856122ab90919063ffffffff16565b6120b090919063ffffffff16565b600e5461233190919063ffffffff16565b925050505b611ffe8260010154611ff0670de0b6b3a7640000611fe28587600001546122ab90919063ffffffff16565b6120b090919063ffffffff16565b61202d90919063ffffffff16565b92505050919050565b600560009054906101000a900473ffffffffffffffffffffffffffffffffffffffff1681565b6000828211156120a5576040517f08c379a000000000000000000000000000000000000000000000000000000000815260040180806020018281038252601e8152602001807f536166654d6174683a207375627472616374696f6e206f766572666c6f77000081525060200191505060405180910390fd5b818303905092915050565b6000808211612127576040517f08c379a000000000000000000000000000000000000000000000000000000000815260040180806020018281038252601a8152602001807f536166654d6174683a206469766973696f6e206279207a65726f00000000000081525060200191505060405180910390fd5b81838161213057fe5b04905092915050565b6000806121858460200151612177670de0b6b3a7640000612169600e5489600001516122ab90919063ffffffff16565b6120b090919063ffffffff16565b61202d90919063ffffffff16565b905060008111156121ff57826121e3576121e23382600560009054906101000a900473ffffffffffffffffffffffffffffffffffffffff1673ffffffffffffffffffffffffffffffffffffffff166122099092919063ffffffff16565b5b6121f881600a5461233190919063ffffffff16565b600a819055505b8091505092915050565b6122a68363a9059cbb60e01b8484604051602401808373ffffffffffffffffffffffffffffffffffffffff16815260200182815260200192505050604051602081830303815290604052907bffffffffffffffffffffffffffffffffffffffffffffffffffffffff19166020820180517bffffffffffffffffffffffffffffffffffffffffffffffffffffffff8381831617835250505050612998565b505050565b6000808314156122be576000905061232b565b60008284029050828482816122cf57fe5b0414612326576040517f08c379a0000000000000000000000000000000000000000000000000000000008152600401808060200182810382526021815260200180612d976021913960400191505060405180910390fd5b809150505b92915050565b6000808284019050838110156123af576040517f08c379a000000000000000000000000000000000000000000000000000000000815260040180806020018281038252601b8152602001807f536166654d6174683a206164646974696f6e206f766572666c6f77000000000081525060200191505060405180910390fd5b8091505092915050565b600033905090565b6123c9611c47565b600080601060003373ffffffffffffffffffffffffffffffffffffffff1673ffffffffffffffffffffffffffffffffffffffff16815260200190815260200160002090508060020160009054906101000a900460ff166124525760018160020160006101000a81548160ff0219169083151502179055506001600f600082825401925050819055505b600081600001541115612569576124a38160405180606001604052908160008201548152602001600182015481526020016002820160009054906101000a900460ff16151515158152505084612139565b9150821561256857600460009054906101000a900460ff1661252d576040517f08c379a00000000000000000000000000000000000000000000000000000000081526004018080602001828103825260118152602001807f5265696e766573742064697361626c656400000000000000000000000000000081525060200191505060405180910390fd5b61254482826000015461233190919063ffffffff16565b81600001819055506125618260095461233190919063ffffffff16565b6009819055505b5b6000841115612793576000600460019054906101000a900473ffffffffffffffffffffffffffffffffffffffff1673ffffffffffffffffffffffffffffffffffffffff166370a08231306040518263ffffffff1660e01b8152600401808273ffffffffffffffffffffffffffffffffffffffff16815260200191505060206040518083038186803b1580156125fd57600080fd5b505afa158015612611573d6000803e3d6000fd5b505050506040513d602081101561262757600080fd5b81019080805190602001909291905050509050612689333087600460019054906101000a900473ffffffffffffffffffffffffffffffffffffffff1673ffffffffffffffffffffffffffffffffffffffff16612872909392919063ffffffff16565b600081600460019054906101000a900473ffffffffffffffffffffffffffffffffffffffff1673ffffffffffffffffffffffffffffffffffffffff166370a08231306040518263ffffffff1660e01b8152600401808273ffffffffffffffffffffffffffffffffffffffff16815260200191505060206040518083038186803b15801561271557600080fd5b505afa158015612729573d6000803e3d6000fd5b505050506040513d602081101561273f57600080fd5b810190808051906020019092919050505003905080955061276d86846000015461233190919063ffffffff16565b836000018190555061278a8660095461233190919063ffffffff16565b60098190555050505b6127ac8160010154600b5461202d90919063ffffffff16565b600b819055506127e5670de0b6b3a76400006127d7600e5484600001546122ab90919063ffffffff16565b6120b090919063ffffffff16565b81600101819055506128068160010154600b5461233190919063ffffffff16565b600b819055503373ffffffffffffffffffffffffffffffffffffffff167f6363655a3c7ace10eb7a32098436bd120788e6c01329bb863799624f11b575f3858486604051808481526020018381526020018215158152602001935050505060405180910390a250505050565b61292d846323b872dd60e01b858585604051602401808473ffffffffffffffffffffffffffffffffffffffff1681526020018373ffffffffffffffffffffffffffffffffffffffff1681526020018281526020019350505050604051602081830303815290604052907bffffffffffffffffffffffffffffffffffffffffffffffffffffffff19166020820180517bffffffffffffffffffffffffffffffffffffffffffffffffffffffff8381831617835250505050612998565b50505050565b60008183106129455760009050612992565b600854821161296857612961838361202d90919063ffffffff16565b9050612992565b600854831061297a5760009050612992565b61298f8360085461202d90919063ffffffff16565b90505b92915050565b60606129fa826040518060400160405280602081526020017f5361666545524332303a206c6f772d6c6576656c2063616c6c206661696c65648152508573ffffffffffffffffffffffffffffffffffffffff16612a879092919063ffffffff16565b9050600081511115612a8257808060200190516020811015612a1b57600080fd5b8101908080519060200190929190505050612a81576040517f08c379a000000000000000000000000000000000000000000000000000000000815260040180806020018281038252602a815260200180612db8602a913960400191505060405180910390fd5b5b505050565b6060612a968484600085612a9f565b90509392505050565b606082471015612afa576040517f08c379a0000000000000000000000000000000000000000000000000000000008152600401808060200182810382526026815260200180612d716026913960400191505060405180910390fd5b612b0385612c48565b612b75576040517f08c379a000000000000000000000000000000000000000000000000000000000815260040180806020018281038252601d8152602001807f416464726573733a2063616c6c20746f206e6f6e2d636f6e747261637400000081525060200191505060405180910390fd5b600060608673ffffffffffffffffffffffffffffffffffffffff1685876040518082805190602001908083835b60208310612bc55780518252602082019150602081019050602083039250612ba2565b6001836020036101000a03801982511681845116808217855250505050505090500191505060006040518083038185875af1925050503d8060008114612c27576040519150601f19603f3d011682016040523d82523d6000602084013e612c2c565b606091505b5091509150612c3c828286612c5b565b92505050949350505050565b600080823b905060008111915050919050565b60608315612c6b57829050612d20565b600083511115612c7e5782518084602001fd5b816040517f08c379a00000000000000000000000000000000000000000000000000000000081526004018080602001828103825283818151815260200191508051906020019080838360005b83811015612ce5578082015181840152602081019050612cca565b50505050905090810190601f168015612d125780820380516001836020036101000a031916815260200191505b509250505060405180910390fd5b9392505050565b60405180606001604052806000815260200160008152602001600015158152509056fe4f776e61626c653a206e6577206f776e657220697320746865207a65726f2061646472657373416464726573733a20696e73756666696369656e742062616c616e636520666f722063616c6c536166654d6174683a206d756c7469706c69636174696f6e206f766572666c6f775361666545524332303a204552433230206f7065726174696f6e20646964206e6f742073756363656564a2646970667358221220c1ede4e70e31769944ad60b4e53f3800a286d29f80a00a65279a09d8931cb3cf64736f6c634300060c0033",
  "immutableReferences": {},
  "source": "// SPDX-License-Identifier: MIT\npragma solidity 0.6.12;\n\nimport \"@openzeppelin/contracts/access/Ownable.sol\";\nimport \"@openzeppelin/contracts/utils/ReentrancyGuard.sol\";\nimport \"@openzeppelin/contracts/math/SafeMath.sol\";\nimport \"@openzeppelin/contracts/token/ERC20/SafeERC20.sol\";\nimport \"@openzeppelin/contracts/token/ERC20/IERC20.sol\";\nimport \"./Whitelist.sol\";\n\ncontract StakingPool is Ownable, Whitelist, ReentrancyGuard {\n    using SafeMath for uint256;\n    using SafeERC20 for IERC20;\n\n    bool public allowReinvest;\n    IERC20 public stakingToken;\n    IERC20 public rewardToken;\n    uint256 public startTime;\n    uint256 public lastRewardTime;\n    uint256 public finishTime;\n    uint256 public allStakedAmount;\n    uint256 public allPaidReward;\n    uint256 public allRewardDebt;\n    uint256 public poolTokenAmount;\n    uint256 public rewardPerSec;\n    uint256 public accTokensPerShare; // Accumulated tokens per share\n    uint256 public participants; //Count of participants\n\n    // Info of each user.\n    struct UserInfo {\n        uint256 amount;     // How many tokens the user has staked.\n        uint256 rewardDebt; // Reward debt\n        bool registrated;\n    }\n\n    mapping (address => UserInfo) public userInfo;\n\n    event PoolReplenished(uint256 amount);\n    event TokensStaked(address indexed user, uint256 amount, uint256 reward, bool reinvest);\n    event StakeWithdrawn(address indexed user, uint256 amount, uint256 reward);\n    event EmergencyWithdraw(address indexed user, uint256 amount);\n\n    event WithdrawPoolRemainder(address indexed user, uint256 amount);\n    event UpdateFinishTime(uint256 addedTokenAmount, uint256 newFinishTime);\n    event HasWhitelistingUpdated(bool newValue);\n\n    constructor(\n        IERC20 _stakingToken,\n        IERC20 _poolToken,\n        uint256 _startTime,\n        uint256 _finishTime,\n        uint256 _poolTokenAmount,\n        bool _hasWhitelisting\n    ) public Whitelist(_hasWhitelisting) {\n        stakingToken = _stakingToken;\n        rewardToken = _poolToken;\n        require(_startTime < _finishTime, \"Start must be less than finish\");\n        require(_startTime > now, \"Start must be more than now\");\n\n        startTime = _startTime;\n        lastRewardTime = startTime;\n        finishTime = _finishTime;\n        poolTokenAmount = _poolTokenAmount;\n        rewardPerSec = _poolTokenAmount.div(_finishTime.sub(_startTime));\n\n        allowReinvest = address(stakingToken) == address(rewardToken);\n    }\n\n    function getUserInfo(address user)\n        external\n        view\n        returns (uint256, uint256)\n    {\n        UserInfo memory info = userInfo[user];\n        return (info.amount, info.rewardDebt);\n    }\n    \n    function getMultiplier(uint256 _from, uint256 _to)\n        internal\n        view\n        returns (uint256)\n    {\n        if (_from >= _to) {\n          return 0;\n        }\n        if (_to <= finishTime) {\n            return _to.sub(_from);\n        } else if (_from >= finishTime) {\n            return 0;\n        } else {\n            return finishTime.sub(_from);\n        }\n    }\n\n    // View function to see pending Reward on frontend.\n    function pendingReward(address _user) external view returns (uint256) {\n        UserInfo storage user = userInfo[_user];\n        uint256 tempAccTokensPerShare = accTokensPerShare;\n        if (now > lastRewardTime && allStakedAmount != 0) {\n            uint256 multiplier = getMultiplier(lastRewardTime, now);\n            uint256 reward = multiplier.mul(rewardPerSec);\n            tempAccTokensPerShare = accTokensPerShare.add(\n                reward.mul(1e18).div(allStakedAmount)\n            );\n        }\n        return user.amount.mul(tempAccTokensPerShare).div(1e18).sub(user.rewardDebt);\n    }\n\n    // Update reward variables of the given pool to be up-to-date.\n    function updatePool() public {\n        if (now <= lastRewardTime) {\n            return;\n        }\n        if (allStakedAmount == 0) {\n            lastRewardTime = now;\n            return;\n        }\n\n        uint256 multiplier = getMultiplier(lastRewardTime, now);\n        uint256 reward = multiplier.mul(rewardPerSec);\n        accTokensPerShare = accTokensPerShare.add(\n            reward.mul(1e18).div(allStakedAmount)\n        );\n        lastRewardTime = now;\n    }\n\n    function reinvestTokens() external nonReentrant onlyWhitelisted{\n        innerStakeTokens(0, true);\n    }\n\n    function stakeTokens(uint256 _amountToStake) external nonReentrant onlyWhitelisted{\n        innerStakeTokens(_amountToStake, false);\n    }\n\n    function innerStakeTokens(uint256 _amountToStake, bool reinvest) private{\n        updatePool();\n        uint256 pending = 0;\n        UserInfo storage user = userInfo[msg.sender];\n\n        if(!user.registrated){\n            user.registrated = true;\n            participants +=1;\n        }\n        if (user.amount > 0) {\n            pending = transferPendingReward(user, reinvest);\n            if(reinvest)\n            {\n                require(allowReinvest, \"Reinvest disabled\");\n                user.amount = user.amount.add(pending);\n                allStakedAmount = allStakedAmount.add(pending);\n            }\n        }\n        if (_amountToStake > 0) {\n            uint256 balanceBefore = stakingToken.balanceOf(address(this));\n            stakingToken.safeTransferFrom(msg.sender, address(this), _amountToStake);\n            uint256 received = stakingToken.balanceOf(address(this)) - balanceBefore;\n            _amountToStake = received;\n            user.amount = user.amount.add(_amountToStake);\n            allStakedAmount = allStakedAmount.add(_amountToStake);\n        }\n        \n        allRewardDebt = allRewardDebt.sub(user.rewardDebt);\n        user.rewardDebt = user.amount.mul(accTokensPerShare).div(1e18);\n        allRewardDebt = allRewardDebt.add(user.rewardDebt);\n        emit TokensStaked(msg.sender, _amountToStake, pending, reinvest);\n    }\n\n    // Leave the pool. Claim back your tokens.\n    // Unclocks the staked + gained tokens and burns pool shares\n    function withdrawStake(uint256 _amount) external nonReentrant {\n        UserInfo storage user = userInfo[msg.sender];\n        require(user.amount >= _amount, \"withdraw: not good\");\n        updatePool();\n        uint256 pending = transferPendingReward(user, false);\n\n        if (_amount > 0) {\n            user.amount = user.amount.sub(_amount);\n            stakingToken.safeTransfer(msg.sender, _amount);\n        }\n        allRewardDebt = allRewardDebt.sub(user.rewardDebt);\n        user.rewardDebt = user.amount.mul(accTokensPerShare).div(1e18);\n        allRewardDebt = allRewardDebt.add(user.rewardDebt);\n        allStakedAmount = allStakedAmount.sub(_amount);\n\n        emit StakeWithdrawn(msg.sender, _amount, pending);\n    }\n\n    function transferPendingReward(UserInfo memory user, bool reinvest) private returns (uint256) {\n        uint256 pending = user.amount.mul(accTokensPerShare).div(1e18).sub(user.rewardDebt);\n\n        if (pending > 0) {\n            if(!reinvest){\n                rewardToken.safeTransfer(msg.sender, pending);\n            }\n            allPaidReward = allPaidReward.add(pending);\n        }\n\n        return pending;\n    }\n\n    // Withdraw without caring about rewards. EMERGENCY ONLY.\n    function emergencyWithdraw() external nonReentrant{\n        UserInfo storage user = userInfo[msg.sender];\n        if(user.amount > 0) {\n            stakingToken.safeTransfer(msg.sender, user.amount);\n            emit EmergencyWithdraw(msg.sender, user.amount);\n\n            allStakedAmount = allStakedAmount.sub(user.amount);\n            allRewardDebt = allRewardDebt.sub(user.rewardDebt);\n            user.amount = 0;\n            user.rewardDebt = 0;\n        }\n    }\n\n\n    function withdrawPoolRemainder() external onlyOwner nonReentrant{\n        require(now > finishTime, \"Allow after finish\");\n        updatePool();\n        uint256 pending = allStakedAmount.mul(accTokensPerShare).div(1e18).sub(allRewardDebt);\n        uint256 returnAmount = poolTokenAmount.sub(allPaidReward).sub(pending);\n        allPaidReward = allPaidReward.add(returnAmount);\n\n        rewardToken.safeTransfer(msg.sender, returnAmount);\n        emit WithdrawPoolRemainder(msg.sender, returnAmount);\n    }\n\n    function extendDuration(uint256 _addTokenAmount) external onlyOwner nonReentrant{\n        require(now < finishTime, \"Pool was finished\");\n        rewardToken.safeTransferFrom(msg.sender, address(this), _addTokenAmount);     \n        poolTokenAmount = poolTokenAmount.add(_addTokenAmount);\n        finishTime = finishTime.add(_addTokenAmount.div(rewardPerSec));\n\n        emit UpdateFinishTime(_addTokenAmount, finishTime);\n    }\n\n    function setHasWhitelisting(bool value) external onlyOwner{\n        hasWhitelisting = value;\n        emit HasWhitelistingUpdated(hasWhitelisting);\n    } \n\n    // ============ Version Control ============\n    function version() external pure returns (uint256) {\n        return 101; // 1.0.1\n    }\n}\n",
  "sourcePath": "/var/www/staking/contracts/StakingPool.sol",
  "compiler": {
    "name": "solc",
    "version": "0.6.12+commit.27d51765.Emscripten.clang"
  },
  "schemaVersion": "3.4.4",
  "updatedAt": "2022-01-09T13:06:37.438Z",
  "devdoc": {
    "kind": "dev",
    "methods": {
      "owner()": {
        "details": "Returns the address of the current owner."
      },
      "renounceOwnership()": {
        "details": "Leaves the contract without owner. It will not be possible to call `onlyOwner` functions anymore. Can only be called by the current owner. NOTE: Renouncing ownership will leave the contract without an owner, thereby removing any functionality that is only available to the owner."
      },
      "transferOwnership(address)": {
        "details": "Transfers ownership of the contract to a new account (`newOwner`). Can only be called by the current owner."
      }
    },
    "version": 1
  },
  "userdoc": {
    "kind": "user",
    "methods": {},
    "version": 1
  }
}